{
  "_format": "hh-sol-artifact-1",
  "contractName": "HM",
  "sourceName": "contracts/HM.sol",
  "abi": [
    {
      "inputs": [],
      "stateMutability": "nonpayable",
      "type": "constructor"
    },
    {
      "anonymous": false,
      "inputs": [
        {
          "indexed": true,
          "internalType": "address",
          "name": "owner",
          "type": "address"
        },
        {
          "indexed": true,
          "internalType": "address",
          "name": "approved",
          "type": "address"
        },
        {
          "indexed": true,
          "internalType": "uint256",
          "name": "tokenId",
          "type": "uint256"
        }
      ],
      "name": "Approval",
      "type": "event"
    },
    {
      "anonymous": false,
      "inputs": [
        {
          "indexed": true,
          "internalType": "address",
          "name": "owner",
          "type": "address"
        },
        {
          "indexed": true,
          "internalType": "address",
          "name": "operator",
          "type": "address"
        },
        {
          "indexed": false,
          "internalType": "bool",
          "name": "approved",
          "type": "bool"
        }
      ],
      "name": "ApprovalForAll",
      "type": "event"
    },
    {
      "anonymous": false,
      "inputs": [
        {
          "indexed": true,
          "internalType": "address",
          "name": "previousOwner",
          "type": "address"
        },
        {
          "indexed": true,
          "internalType": "address",
          "name": "newOwner",
          "type": "address"
        }
      ],
      "name": "OwnershipTransferred",
      "type": "event"
    },
    {
      "anonymous": false,
      "inputs": [
        {
          "indexed": true,
          "internalType": "address",
          "name": "from",
          "type": "address"
        },
        {
          "indexed": true,
          "internalType": "address",
          "name": "to",
          "type": "address"
        },
        {
          "indexed": true,
          "internalType": "uint256",
          "name": "tokenId",
          "type": "uint256"
        }
      ],
      "name": "Transfer",
      "type": "event"
    },
    {
      "inputs": [
        {
          "internalType": "address",
          "name": "to",
          "type": "address"
        },
        {
          "internalType": "uint256",
          "name": "tokenId",
          "type": "uint256"
        }
      ],
      "name": "approve",
      "outputs": [],
      "stateMutability": "nonpayable",
      "type": "function"
    },
    {
      "inputs": [
        {
          "internalType": "address",
          "name": "owner",
          "type": "address"
        }
      ],
      "name": "balanceOf",
      "outputs": [
        {
          "internalType": "uint256",
          "name": "",
          "type": "uint256"
        }
      ],
      "stateMutability": "view",
      "type": "function"
    },
    {
      "inputs": [],
      "name": "claim",
      "outputs": [],
      "stateMutability": "nonpayable",
      "type": "function"
    },
    {
      "inputs": [
        {
          "internalType": "uint256",
          "name": "tokenId",
          "type": "uint256"
        }
      ],
      "name": "getApproved",
      "outputs": [
        {
          "internalType": "address",
          "name": "",
          "type": "address"
        }
      ],
      "stateMutability": "view",
      "type": "function"
    },
    {
      "inputs": [
        {
          "internalType": "uint256",
          "name": "tokenId",
          "type": "uint256"
        }
      ],
      "name": "getHungMan",
      "outputs": [
        {
          "internalType": "string",
          "name": "",
          "type": "string"
        }
      ],
      "stateMutability": "view",
      "type": "function"
    },
    {
      "inputs": [
        {
          "internalType": "address",
          "name": "owner",
          "type": "address"
        },
        {
          "internalType": "address",
          "name": "operator",
          "type": "address"
        }
      ],
      "name": "isApprovedForAll",
      "outputs": [
        {
          "internalType": "bool",
          "name": "",
          "type": "bool"
        }
      ],
      "stateMutability": "view",
      "type": "function"
    },
    {
      "inputs": [],
      "name": "name",
      "outputs": [
        {
          "internalType": "string",
          "name": "",
          "type": "string"
        }
      ],
      "stateMutability": "view",
      "type": "function"
    },
    {
      "inputs": [],
      "name": "owner",
      "outputs": [
        {
          "internalType": "address",
          "name": "",
          "type": "address"
        }
      ],
      "stateMutability": "view",
      "type": "function"
    },
    {
      "inputs": [
        {
          "internalType": "uint256",
          "name": "tokenId",
          "type": "uint256"
        }
      ],
      "name": "ownerOf",
      "outputs": [
        {
          "internalType": "address",
          "name": "",
          "type": "address"
        }
      ],
      "stateMutability": "view",
      "type": "function"
    },
    {
      "inputs": [],
      "name": "renounceOwnership",
      "outputs": [],
      "stateMutability": "nonpayable",
      "type": "function"
    },
    {
      "inputs": [
        {
          "internalType": "address",
          "name": "from",
          "type": "address"
        },
        {
          "internalType": "address",
          "name": "to",
          "type": "address"
        },
        {
          "internalType": "uint256",
          "name": "tokenId",
          "type": "uint256"
        }
      ],
      "name": "safeTransferFrom",
      "outputs": [],
      "stateMutability": "nonpayable",
      "type": "function"
    },
    {
      "inputs": [
        {
          "internalType": "address",
          "name": "from",
          "type": "address"
        },
        {
          "internalType": "address",
          "name": "to",
          "type": "address"
        },
        {
          "internalType": "uint256",
          "name": "tokenId",
          "type": "uint256"
        },
        {
          "internalType": "bytes",
          "name": "_data",
          "type": "bytes"
        }
      ],
      "name": "safeTransferFrom",
      "outputs": [],
      "stateMutability": "nonpayable",
      "type": "function"
    },
    {
      "inputs": [
        {
          "internalType": "address",
          "name": "operator",
          "type": "address"
        },
        {
          "internalType": "bool",
          "name": "approved",
          "type": "bool"
        }
      ],
      "name": "setApprovalForAll",
      "outputs": [],
      "stateMutability": "nonpayable",
      "type": "function"
    },
    {
      "inputs": [
        {
          "internalType": "bytes4",
          "name": "interfaceId",
          "type": "bytes4"
        }
      ],
      "name": "supportsInterface",
      "outputs": [
        {
          "internalType": "bool",
          "name": "",
          "type": "bool"
        }
      ],
      "stateMutability": "view",
      "type": "function"
    },
    {
      "inputs": [],
      "name": "symbol",
      "outputs": [
        {
          "internalType": "string",
          "name": "",
          "type": "string"
        }
      ],
      "stateMutability": "view",
      "type": "function"
    },
    {
      "inputs": [
        {
          "internalType": "uint256",
          "name": "index",
          "type": "uint256"
        }
      ],
      "name": "tokenByIndex",
      "outputs": [
        {
          "internalType": "uint256",
          "name": "",
          "type": "uint256"
        }
      ],
      "stateMutability": "view",
      "type": "function"
    },
    {
      "inputs": [
        {
          "internalType": "address",
          "name": "owner",
          "type": "address"
        },
        {
          "internalType": "uint256",
          "name": "index",
          "type": "uint256"
        }
      ],
      "name": "tokenOfOwnerByIndex",
      "outputs": [
        {
          "internalType": "uint256",
          "name": "",
          "type": "uint256"
        }
      ],
      "stateMutability": "view",
      "type": "function"
    },
    {
      "inputs": [
        {
          "internalType": "uint256",
          "name": "tokenId",
          "type": "uint256"
        }
      ],
      "name": "tokenURI",
      "outputs": [
        {
          "internalType": "string",
          "name": "",
          "type": "string"
        }
      ],
      "stateMutability": "view",
      "type": "function"
    },
    {
      "inputs": [],
      "name": "totalSupply",
      "outputs": [
        {
          "internalType": "uint256",
          "name": "",
          "type": "uint256"
        }
      ],
      "stateMutability": "view",
      "type": "function"
    },
    {
      "inputs": [
        {
          "internalType": "address",
          "name": "from",
          "type": "address"
        },
        {
          "internalType": "address",
          "name": "to",
          "type": "address"
        },
        {
          "internalType": "uint256",
          "name": "tokenId",
          "type": "uint256"
        }
      ],
      "name": "transferFrom",
      "outputs": [],
      "stateMutability": "nonpayable",
      "type": "function"
    },
    {
      "inputs": [
        {
          "internalType": "address",
          "name": "newOwner",
          "type": "address"
        }
      ],
      "name": "transferOwnership",
      "outputs": [],
      "stateMutability": "nonpayable",
      "type": "function"
    }
  ],
  "bytecode": "0x60806040523480156200001157600080fd5b506040518060400160405280600881526020017f48756e67204d616e0000000000000000000000000000000000000000000000008152506040518060400160405280600281526020017f484d000000000000000000000000000000000000000000000000000000000000815250816000908051906020019062000096929190620001ae565b508060019080519060200190620000af929190620001ae565b5050506001600a81905550620000da620000ce620000e060201b60201c565b620000e860201b60201c565b620002c3565b600033905090565b6000600b60009054906101000a900473ffffffffffffffffffffffffffffffffffffffff16905081600b60006101000a81548173ffffffffffffffffffffffffffffffffffffffff021916908373ffffffffffffffffffffffffffffffffffffffff1602179055508173ffffffffffffffffffffffffffffffffffffffff168173ffffffffffffffffffffffffffffffffffffffff167f8be0079c531659141344cd1fd0a4f28419497f9722a3daafe3b4186f6b6457e060405160405180910390a35050565b828054620001bc906200025e565b90600052602060002090601f016020900481019282620001e057600085556200022c565b82601f10620001fb57805160ff19168380011785556200022c565b828001600101855582156200022c579182015b828111156200022b5782518255916020019190600101906200020e565b5b5090506200023b91906200023f565b5090565b5b808211156200025a57600081600090555060010162000240565b5090565b600060028204905060018216806200027757607f821691505b602082108114156200028e576200028d62000294565b5b50919050565b7f4e487b7100000000000000000000000000000000000000000000000000000000600052602260045260246000fd5b61556e80620002d36000396000f3fe608060405234801561001057600080fd5b50600436106101375760003560e01c80634f6ccce7116100b857806395d89b411161007c57806395d89b411461034e578063a22cb4651461036c578063b88d4fde14610388578063c87b56dd146103a4578063e985e9c5146103d4578063f2fde38b1461040457610137565b80634f6ccce7146102965780636352211e146102c657806370a08231146102f6578063715018a6146103265780638da5cb5b1461033057610137565b80631fcadc42116100ff5780631fcadc42146101f457806323b872dd146102245780632f745c591461024057806342842e0e146102705780634e71d92d1461028c57610137565b806301ffc9a71461013c57806306fdde031461016c578063081812fc1461018a578063095ea7b3146101ba57806318160ddd146101d6575b600080fd5b6101566004803603810190610151919061355c565b610420565b604051610163919061408e565b60405180910390f35b61017461049a565b60405161018191906140a9565b60405180910390f35b6101a4600480360381019061019f91906135ae565b61052c565b6040516101b19190614027565b60405180910390f35b6101d460048036038101906101cf9190613520565b6105b1565b005b6101de6106c9565b6040516101eb919061430b565b60405180910390f35b61020e600480360381019061020991906135ae565b6106d6565b60405161021b91906140a9565b60405180910390f35b61023e6004803603810190610239919061341a565b611548565b005b61025a60048036038101906102559190613520565b6115a8565b604051610267919061430b565b60405180910390f35b61028a6004803603810190610285919061341a565b61164d565b005b61029461166d565b005b6102b060048036038101906102ab91906135ae565b6116ef565b6040516102bd919061430b565b60405180910390f35b6102e060048036038101906102db91906135ae565b611786565b6040516102ed9190614027565b60405180910390f35b610310600480360381019061030b91906133b5565b611838565b60405161031d919061430b565b60405180910390f35b61032e6118f0565b005b610338611978565b6040516103459190614027565b60405180910390f35b6103566119a2565b60405161036391906140a9565b60405180910390f35b610386600480360381019061038191906134e4565b611a34565b005b6103a2600480360381019061039d9190613469565b611bb5565b005b6103be60048036038101906103b991906135ae565b611c17565b6040516103cb91906140a9565b60405180910390f35b6103ee60048036038101906103e991906133de565b611e14565b6040516103fb919061408e565b60405180910390f35b61041e600480360381019061041991906133b5565b611ea8565b005b60007f780e9d63000000000000000000000000000000000000000000000000000000007bffffffffffffffffffffffffffffffffffffffffffffffffffffffff1916827bffffffffffffffffffffffffffffffffffffffffffffffffffffffff19161480610493575061049282611fa0565b5b9050919050565b6060600080546104a990614595565b80601f01602080910402602001604051908101604052809291908181526020018280546104d590614595565b80156105225780601f106104f757610100808354040283529160200191610522565b820191906000526020600020905b81548152906001019060200180831161050557829003601f168201915b5050505050905090565b600061053782612082565b610576576040517f08c379a000000000000000000000000000000000000000000000000000000000815260040161056d9061422b565b60405180910390fd5b6004600083815260200190815260200160002060009054906101000a900473ffffffffffffffffffffffffffffffffffffffff169050919050565b60006105bc82611786565b90508073ffffffffffffffffffffffffffffffffffffffff168373ffffffffffffffffffffffffffffffffffffffff16141561062d576040517f08c379a00000000000000000000000000000000000000000000000000000000081526004016106249061428b565b60405180910390fd5b8073ffffffffffffffffffffffffffffffffffffffff1661064c6120ee565b73ffffffffffffffffffffffffffffffffffffffff16148061067b575061067a816106756120ee565b611e14565b5b6106ba576040517f08c379a00000000000000000000000000000000000000000000000000000000081526004016106b1906141ab565b60405180910390fd5b6106c483836120f6565b505050565b6000600880549050905090565b60606106e0613295565b6106e8613295565b60405180602001604052806000815250826000600c8110610732577f4e487b7100000000000000000000000000000000000000000000000000000000600052603260045260246000fd5b60200201819052506040518060800160405280604a81526020016152d6604a9139826001600c811061078d577f4e487b7100000000000000000000000000000000000000000000000000000000600052603260045260246000fd5b602002018190525060405180608001604052806049815260200161477560499139826002600c81106107e8577f4e487b7100000000000000000000000000000000000000000000000000000000600052603260045260246000fd5b602002018190525060405180610100016040528060de81526020016149f460de9139826003600c8110610844577f4e487b7100000000000000000000000000000000000000000000000000000000600052603260045260246000fd5b602002018190525060405180608001604052806048815260200161507c60489139826004600c811061089f577f4e487b7100000000000000000000000000000000000000000000000000000000600052603260045260246000fd5b60200201819052506040518060800160405280604b8152602001615320604b9139826005600c81106108fa577f4e487b7100000000000000000000000000000000000000000000000000000000600052603260045260246000fd5b60200201819052506040518060800160405280605081526020016147be60509139826006600c8110610955577f4e487b7100000000000000000000000000000000000000000000000000000000600052603260045260246000fd5b602002018190525060405180610240016040528061020e8152602001614ad261020e9139826007600c81106109b3577f4e487b7100000000000000000000000000000000000000000000000000000000600052603260045260246000fd5b60200201819052506040518061020001604052806101ce8152602001614eae6101ce9139826008600c8110610a11577f4e487b7100000000000000000000000000000000000000000000000000000000600052603260045260246000fd5b60200201819052506040518061020001604052806101ce815260200161536b6101ce9139826009600c8110610a6f577f4e487b7100000000000000000000000000000000000000000000000000000000600052603260045260246000fd5b60200201819052506040518061020001604052806101d281526020016151046101d2913982600a600c8110610acd577f4e487b7100000000000000000000000000000000000000000000000000000000600052603260045260246000fd5b60200201819052506040518061020001604052806101ce8152602001614ce06101ce913982600b600c8110610b2b577f4e487b7100000000000000000000000000000000000000000000000000000000600052603260045260246000fd5b60200201819052506000610b87610b41866121af565b610b603373ffffffffffffffffffffffffffffffffffffffff166121af565b42604051602001610b7393929190613fe7565b60405160208183030381529060405261235c565b905060006103e982610b99919061461a565b905060008110610c2557836000600c8110610bdd577f4e487b7100000000000000000000000000000000000000000000000000000000600052603260045260246000fd5b6020020151836000600c8110610c1c577f4e487b7100000000000000000000000000000000000000000000000000000000600052603260045260246000fd5b60200201819052505b6101138110610cb057836001600c8110610c68577f4e487b7100000000000000000000000000000000000000000000000000000000600052603260045260246000fd5b6020020151836001600c8110610ca7577f4e487b7100000000000000000000000000000000000000000000000000000000600052603260045260246000fd5b60200201819052505b6101778110610d3b57836002600c8110610cf3577f4e487b7100000000000000000000000000000000000000000000000000000000600052603260045260246000fd5b6020020151836002600c8110610d32577f4e487b7100000000000000000000000000000000000000000000000000000000600052603260045260246000fd5b60200201819052505b6101db8110610dc657836003600c8110610d7e577f4e487b7100000000000000000000000000000000000000000000000000000000600052603260045260246000fd5b6020020151836003600c8110610dbd577f4e487b7100000000000000000000000000000000000000000000000000000000600052603260045260246000fd5b60200201819052505b61023f8110610e5157836004600c8110610e09577f4e487b7100000000000000000000000000000000000000000000000000000000600052603260045260246000fd5b6020020151836004600c8110610e48577f4e487b7100000000000000000000000000000000000000000000000000000000600052603260045260246000fd5b60200201819052505b6102a38110610edc57836005600c8110610e94577f4e487b7100000000000000000000000000000000000000000000000000000000600052603260045260246000fd5b6020020151836005600c8110610ed3577f4e487b7100000000000000000000000000000000000000000000000000000000600052603260045260246000fd5b60200201819052505b6103078110610f6757836006600c8110610f1f577f4e487b7100000000000000000000000000000000000000000000000000000000600052603260045260246000fd5b6020020151836006600c8110610f5e577f4e487b7100000000000000000000000000000000000000000000000000000000600052603260045260246000fd5b60200201819052505b6103618110610ff257836007600c8110610faa577f4e487b7100000000000000000000000000000000000000000000000000000000600052603260045260246000fd5b6020020151836007600c8110610fe9577f4e487b7100000000000000000000000000000000000000000000000000000000600052603260045260246000fd5b60200201819052505b6103a7811061107d57836008600c8110611035577f4e487b7100000000000000000000000000000000000000000000000000000000600052603260045260246000fd5b6020020151836008600c8110611074577f4e487b7100000000000000000000000000000000000000000000000000000000600052603260045260246000fd5b60200201819052505b6103cf811061110857836009600c81106110c0577f4e487b7100000000000000000000000000000000000000000000000000000000600052603260045260246000fd5b6020020151836009600c81106110ff577f4e487b7100000000000000000000000000000000000000000000000000000000600052603260045260246000fd5b60200201819052505b6103e381106111935783600a600c811061114b577f4e487b7100000000000000000000000000000000000000000000000000000000600052603260045260246000fd5b602002015183600a600c811061118a577f4e487b7100000000000000000000000000000000000000000000000000000000600052603260045260246000fd5b60200201819052505b6103e881141561121f5783600b600c81106111d7577f4e487b7100000000000000000000000000000000000000000000000000000000600052603260045260246000fd5b602002015183600b600c8110611216577f4e487b7100000000000000000000000000000000000000000000000000000000600052603260045260246000fd5b60200201819052505b826000600c8110611259577f4e487b7100000000000000000000000000000000000000000000000000000000600052603260045260246000fd5b6020020151836001600c8110611298577f4e487b7100000000000000000000000000000000000000000000000000000000600052603260045260246000fd5b6020020151846002600c81106112d7577f4e487b7100000000000000000000000000000000000000000000000000000000600052603260045260246000fd5b6020020151856003600c8110611316577f4e487b7100000000000000000000000000000000000000000000000000000000600052603260045260246000fd5b6020020151866004600c8110611355577f4e487b7100000000000000000000000000000000000000000000000000000000600052603260045260246000fd5b6020020151876005600c8110611394577f4e487b7100000000000000000000000000000000000000000000000000000000600052603260045260246000fd5b6020020151886006600c81106113d3577f4e487b7100000000000000000000000000000000000000000000000000000000600052603260045260246000fd5b6020020151896007600c8110611412577f4e487b7100000000000000000000000000000000000000000000000000000000600052603260045260246000fd5b60200201518a6008600c8110611451577f4e487b7100000000000000000000000000000000000000000000000000000000600052603260045260246000fd5b60200201518b6009600c8110611490577f4e487b7100000000000000000000000000000000000000000000000000000000600052603260045260246000fd5b60200201518c600a600c81106114cf577f4e487b7100000000000000000000000000000000000000000000000000000000600052603260045260246000fd5b60200201518d600b600c811061150e577f4e487b7100000000000000000000000000000000000000000000000000000000600052603260045260246000fd5b602002015160405160200161152e9c9b9a99989796959493929190613eda565b604051602081830303815290604052945050505050919050565b6115596115536120ee565b8261238f565b611598576040517f08c379a000000000000000000000000000000000000000000000000000000000815260040161158f906142ab565b60405180910390fd5b6115a383838361246d565b505050565b60006115b383611838565b82106115f4576040517f08c379a00000000000000000000000000000000000000000000000000000000081526004016115eb906140cb565b60405180910390fd5b600660008473ffffffffffffffffffffffffffffffffffffffff1673ffffffffffffffffffffffffffffffffffffffff168152602001908152602001600020600083815260200190815260200160002054905092915050565b61166883838360405180602001604052806000815250611bb5565b505050565b6002600a5414156116b3576040517f08c379a00000000000000000000000000000000000000000000000000000000081526004016116aa906142eb565b60405180910390fd5b6002600a81905550600060016116c76106c9565b6116d191906143ca565b90506116e46116de6120ee565b826126c9565b506001600a81905550565b60006116f96106c9565b821061173a576040517f08c379a0000000000000000000000000000000000000000000000000000000008152600401611731906142cb565b60405180910390fd5b60088281548110611774577f4e487b7100000000000000000000000000000000000000000000000000000000600052603260045260246000fd5b90600052602060002001549050919050565b6000806002600084815260200190815260200160002060009054906101000a900473ffffffffffffffffffffffffffffffffffffffff169050600073ffffffffffffffffffffffffffffffffffffffff168173ffffffffffffffffffffffffffffffffffffffff16141561182f576040517f08c379a0000000000000000000000000000000000000000000000000000000008152600401611826906141eb565b60405180910390fd5b80915050919050565b60008073ffffffffffffffffffffffffffffffffffffffff168273ffffffffffffffffffffffffffffffffffffffff1614156118a9576040517f08c379a00000000000000000000000000000000000000000000000000000000081526004016118a0906141cb565b60405180910390fd5b600360008373ffffffffffffffffffffffffffffffffffffffff1673ffffffffffffffffffffffffffffffffffffffff168152602001908152602001600020549050919050565b6118f86120ee565b73ffffffffffffffffffffffffffffffffffffffff16611916611978565b73ffffffffffffffffffffffffffffffffffffffff161461196c576040517f08c379a00000000000000000000000000000000000000000000000000000000081526004016119639061424b565b60405180910390fd5b61197660006126e7565b565b6000600b60009054906101000a900473ffffffffffffffffffffffffffffffffffffffff16905090565b6060600180546119b190614595565b80601f01602080910402602001604051908101604052809291908181526020018280546119dd90614595565b8015611a2a5780601f106119ff57610100808354040283529160200191611a2a565b820191906000526020600020905b815481529060010190602001808311611a0d57829003601f168201915b5050505050905090565b611a3c6120ee565b73ffffffffffffffffffffffffffffffffffffffff168273ffffffffffffffffffffffffffffffffffffffff161415611aaa576040517f08c379a0000000000000000000000000000000000000000000000000000000008152600401611aa19061416b565b60405180910390fd5b8060056000611ab76120ee565b73ffffffffffffffffffffffffffffffffffffffff1673ffffffffffffffffffffffffffffffffffffffff16815260200190815260200160002060008473ffffffffffffffffffffffffffffffffffffffff1673ffffffffffffffffffffffffffffffffffffffff16815260200190815260200160002060006101000a81548160ff0219169083151502179055508173ffffffffffffffffffffffffffffffffffffffff16611b646120ee565b73ffffffffffffffffffffffffffffffffffffffff167f17307eab39ab6107e8899845ad3d59bd9653f200f220920489ca2b5937696c3183604051611ba9919061408e565b60405180910390a35050565b611bc6611bc06120ee565b8361238f565b611c05576040517f08c379a0000000000000000000000000000000000000000000000000000000008152600401611bfc906142ab565b60405180910390fd5b611c11848484846127ad565b50505050565b60606000611c24836106d6565b9050611c2e6132bd565b6040518061022001604052806101e6815260200161480e6101e6913981600060028110611c84577f4e487b7100000000000000000000000000000000000000000000000000000000600052603260045260246000fd5b60200201819052506040518060400160405280600681526020017f3c2f7376673e000000000000000000000000000000000000000000000000000081525081600160028110611cfc577f4e487b7100000000000000000000000000000000000000000000000000000000600052603260045260246000fd5b6020020181905250600081600060028110611d40577f4e487b7100000000000000000000000000000000000000000000000000000000600052603260045260246000fd5b60200201518383600160028110611d80577f4e487b7100000000000000000000000000000000000000000000000000000000600052603260045260246000fd5b6020020151604051602001611d9793929190613ea9565b60405160208183030381529060405290506000611de4611db6876121af565b611dbf84612809565b604051602001611dd0929190613f80565b604051602081830303815290604052612809565b905080604051602001611df79190613fc5565b604051602081830303815290604052915081945050505050919050565b6000600560008473ffffffffffffffffffffffffffffffffffffffff1673ffffffffffffffffffffffffffffffffffffffff16815260200190815260200160002060008373ffffffffffffffffffffffffffffffffffffffff1673ffffffffffffffffffffffffffffffffffffffff16815260200190815260200160002060009054906101000a900460ff16905092915050565b611eb06120ee565b73ffffffffffffffffffffffffffffffffffffffff16611ece611978565b73ffffffffffffffffffffffffffffffffffffffff1614611f24576040517f08c379a0000000000000000000000000000000000000000000000000000000008152600401611f1b9061424b565b60405180910390fd5b600073ffffffffffffffffffffffffffffffffffffffff168173ffffffffffffffffffffffffffffffffffffffff161415611f94576040517f08c379a0000000000000000000000000000000000000000000000000000000008152600401611f8b9061410b565b60405180910390fd5b611f9d816126e7565b50565b60007f80ac58cd000000000000000000000000000000000000000000000000000000007bffffffffffffffffffffffffffffffffffffffffffffffffffffffff1916827bffffffffffffffffffffffffffffffffffffffffffffffffffffffff1916148061206b57507f5b5e139f000000000000000000000000000000000000000000000000000000007bffffffffffffffffffffffffffffffffffffffffffffffffffffffff1916827bffffffffffffffffffffffffffffffffffffffffffffffffffffffff1916145b8061207b575061207a826129c7565b5b9050919050565b60008073ffffffffffffffffffffffffffffffffffffffff166002600084815260200190815260200160002060009054906101000a900473ffffffffffffffffffffffffffffffffffffffff1673ffffffffffffffffffffffffffffffffffffffff1614159050919050565b600033905090565b816004600083815260200190815260200160002060006101000a81548173ffffffffffffffffffffffffffffffffffffffff021916908373ffffffffffffffffffffffffffffffffffffffff160217905550808273ffffffffffffffffffffffffffffffffffffffff1661216983611786565b73ffffffffffffffffffffffffffffffffffffffff167f8c5be1e5ebec7d5bd14f71427d1e84f3dd0314c0f7b2291e5b200ac8c7c3b92560405160405180910390a45050565b606060008214156121f7576040518060400160405280600181526020017f30000000000000000000000000000000000000000000000000000000000000008152509050612357565b600082905060005b60008214612229578080612212906145c7565b915050600a826122229190614420565b91506121ff565b60008167ffffffffffffffff81111561226b577f4e487b7100000000000000000000000000000000000000000000000000000000600052604160045260246000fd5b6040519080825280601f01601f19166020018201604052801561229d5781602001600182028036833780820191505090505b5090505b60008514612350576001826122b691906144ab565b9150600a856122c5919061461a565b60306122d191906143ca565b60f81b81838151811061230d577f4e487b7100000000000000000000000000000000000000000000000000000000600052603260045260246000fd5b60200101907effffffffffffffffffffffffffffffffffffffffffffffffffffffffffffff1916908160001a905350600a856123499190614420565b94506122a1565b8093505050505b919050565b60008160405160200161236f9190613e92565b6040516020818303038152906040528051906020012060001c9050919050565b600061239a82612082565b6123d9576040517f08c379a00000000000000000000000000000000000000000000000000000000081526004016123d09061418b565b60405180910390fd5b60006123e483611786565b90508073ffffffffffffffffffffffffffffffffffffffff168473ffffffffffffffffffffffffffffffffffffffff16148061245357508373ffffffffffffffffffffffffffffffffffffffff1661243b8461052c565b73ffffffffffffffffffffffffffffffffffffffff16145b8061246457506124638185611e14565b5b91505092915050565b8273ffffffffffffffffffffffffffffffffffffffff1661248d82611786565b73ffffffffffffffffffffffffffffffffffffffff16146124e3576040517f08c379a00000000000000000000000000000000000000000000000000000000081526004016124da9061426b565b60405180910390fd5b600073ffffffffffffffffffffffffffffffffffffffff168273ffffffffffffffffffffffffffffffffffffffff161415612553576040517f08c379a000000000000000000000000000000000000000000000000000000000815260040161254a9061414b565b60405180910390fd5b61255e838383612a31565b6125696000826120f6565b6001600360008573ffffffffffffffffffffffffffffffffffffffff1673ffffffffffffffffffffffffffffffffffffffff16815260200190815260200160002060008282546125b991906144ab565b925050819055506001600360008473ffffffffffffffffffffffffffffffffffffffff1673ffffffffffffffffffffffffffffffffffffffff168152602001908152602001600020600082825461261091906143ca565b92505081905550816002600083815260200190815260200160002060006101000a81548173ffffffffffffffffffffffffffffffffffffffff021916908373ffffffffffffffffffffffffffffffffffffffff160217905550808273ffffffffffffffffffffffffffffffffffffffff168473ffffffffffffffffffffffffffffffffffffffff167fddf252ad1be2c89b69c2b068fc378daa952ba7f163c4a11628f55a4df523b3ef60405160405180910390a4505050565b6126e3828260405180602001604052806000815250612b45565b5050565b6000600b60009054906101000a900473ffffffffffffffffffffffffffffffffffffffff16905081600b60006101000a81548173ffffffffffffffffffffffffffffffffffffffff021916908373ffffffffffffffffffffffffffffffffffffffff1602179055508173ffffffffffffffffffffffffffffffffffffffff168173ffffffffffffffffffffffffffffffffffffffff167f8be0079c531659141344cd1fd0a4f28419497f9722a3daafe3b4186f6b6457e060405160405180910390a35050565b6127b884848461246d565b6127c484848484612ba0565b612803576040517f08c379a00000000000000000000000000000000000000000000000000000000081526004016127fa906140eb565b60405180910390fd5b50505050565b6060600082519050600081141561283257604051806020016040528060008152509150506129c2565b6000600360028361284391906143ca565b61284d9190614420565b60046128599190614451565b9050600060208261286a91906143ca565b67ffffffffffffffff8111156128a9577f4e487b7100000000000000000000000000000000000000000000000000000000600052604160045260246000fd5b6040519080825280601f01601f1916602001820160405280156128db5781602001600182028036833780820191505090505b50905060006040518060600160405280604081526020016150c4604091399050600181016020830160005b8681101561297f5760038101905062ffffff818a015116603f8160121c168401518060081b905060ff603f83600c1c1686015116810190508060081b905060ff603f8360061c1686015116810190508060081b905060ff603f831686015116810190508060e01b90508084526004840193505050612906565b50600386066001811461299957600281146129a9576129b4565b613d3d60f01b60028303526129b4565b603d60f81b60018303525b508484525050819450505050505b919050565b60007f01ffc9a7000000000000000000000000000000000000000000000000000000007bffffffffffffffffffffffffffffffffffffffffffffffffffffffff1916827bffffffffffffffffffffffffffffffffffffffffffffffffffffffff1916149050919050565b612a3c838383612d37565b600073ffffffffffffffffffffffffffffffffffffffff168373ffffffffffffffffffffffffffffffffffffffff161415612a7f57612a7a81612d3c565b612abe565b8173ffffffffffffffffffffffffffffffffffffffff168373ffffffffffffffffffffffffffffffffffffffff1614612abd57612abc8382612d85565b5b5b600073ffffffffffffffffffffffffffffffffffffffff168273ffffffffffffffffffffffffffffffffffffffff161415612b0157612afc81612ef2565b612b40565b8273ffffffffffffffffffffffffffffffffffffffff168273ffffffffffffffffffffffffffffffffffffffff1614612b3f57612b3e8282613035565b5b5b505050565b612b4f83836130b4565b612b5c6000848484612ba0565b612b9b576040517f08c379a0000000000000000000000000000000000000000000000000000000008152600401612b92906140eb565b60405180910390fd5b505050565b6000612bc18473ffffffffffffffffffffffffffffffffffffffff16613282565b15612d2a578373ffffffffffffffffffffffffffffffffffffffff1663150b7a02612bea6120ee565b8786866040518563ffffffff1660e01b8152600401612c0c9493929190614042565b602060405180830381600087803b158015612c2657600080fd5b505af1925050508015612c5757506040513d601f19601f82011682018060405250810190612c549190613585565b60015b612cda573d8060008114612c87576040519150601f19603f3d011682016040523d82523d6000602084013e612c8c565b606091505b50600081511415612cd2576040517f08c379a0000000000000000000000000000000000000000000000000000000008152600401612cc9906140eb565b60405180910390fd5b805181602001fd5b63150b7a0260e01b7bffffffffffffffffffffffffffffffffffffffffffffffffffffffff1916817bffffffffffffffffffffffffffffffffffffffffffffffffffffffff191614915050612d2f565b600190505b949350505050565b505050565b6008805490506009600083815260200190815260200160002081905550600881908060018154018082558091505060019003906000526020600020016000909190919091505550565b60006001612d9284611838565b612d9c91906144ab565b9050600060076000848152602001908152602001600020549050818114612e81576000600660008673ffffffffffffffffffffffffffffffffffffffff1673ffffffffffffffffffffffffffffffffffffffff168152602001908152602001600020600084815260200190815260200160002054905080600660008773ffffffffffffffffffffffffffffffffffffffff1673ffffffffffffffffffffffffffffffffffffffff168152602001908152602001600020600084815260200190815260200160002081905550816007600083815260200190815260200160002081905550505b6007600084815260200190815260200160002060009055600660008573ffffffffffffffffffffffffffffffffffffffff1673ffffffffffffffffffffffffffffffffffffffff16815260200190815260200160002060008381526020019081526020016000206000905550505050565b60006001600880549050612f0691906144ab565b9050600060096000848152602001908152602001600020549050600060088381548110612f5c577f4e487b7100000000000000000000000000000000000000000000000000000000600052603260045260246000fd5b906000526020600020015490508060088381548110612fa4577f4e487b7100000000000000000000000000000000000000000000000000000000600052603260045260246000fd5b906000526020600020018190555081600960008381526020019081526020016000208190555060096000858152602001908152602001600020600090556008805480613019577f4e487b7100000000000000000000000000000000000000000000000000000000600052603160045260246000fd5b6001900381819060005260206000200160009055905550505050565b600061304083611838565b905081600660008573ffffffffffffffffffffffffffffffffffffffff1673ffffffffffffffffffffffffffffffffffffffff168152602001908152602001600020600083815260200190815260200160002081905550806007600084815260200190815260200160002081905550505050565b600073ffffffffffffffffffffffffffffffffffffffff168273ffffffffffffffffffffffffffffffffffffffff161415613124576040517f08c379a000000000000000000000000000000000000000000000000000000000815260040161311b9061420b565b60405180910390fd5b61312d81612082565b1561316d576040517f08c379a00000000000000000000000000000000000000000000000000000000081526004016131649061412b565b60405180910390fd5b61317960008383612a31565b6001600360008473ffffffffffffffffffffffffffffffffffffffff1673ffffffffffffffffffffffffffffffffffffffff16815260200190815260200160002060008282546131c991906143ca565b92505081905550816002600083815260200190815260200160002060006101000a81548173ffffffffffffffffffffffffffffffffffffffff021916908373ffffffffffffffffffffffffffffffffffffffff160217905550808273ffffffffffffffffffffffffffffffffffffffff16600073ffffffffffffffffffffffffffffffffffffffff167fddf252ad1be2c89b69c2b068fc378daa952ba7f163c4a11628f55a4df523b3ef60405160405180910390a45050565b600080823b905060008111915050919050565b604051806101800160405280600c905b60608152602001906001900390816132a55790505090565b60405180604001604052806002905b60608152602001906001900390816132cc5790505090565b60006132f76132f284614357565b614326565b90508281526020810184848401111561330f57600080fd5b61331a848285614553565b509392505050565b60008135905061333181614718565b92915050565b6000813590506133468161472f565b92915050565b60008135905061335b81614746565b92915050565b60008151905061337081614746565b92915050565b600082601f83011261338757600080fd5b81356133978482602086016132e4565b91505092915050565b6000813590506133af8161475d565b92915050565b6000602082840312156133c757600080fd5b60006133d584828501613322565b91505092915050565b600080604083850312156133f157600080fd5b60006133ff85828601613322565b925050602061341085828601613322565b9150509250929050565b60008060006060848603121561342f57600080fd5b600061343d86828701613322565b935050602061344e86828701613322565b925050604061345f868287016133a0565b9150509250925092565b6000806000806080858703121561347f57600080fd5b600061348d87828801613322565b945050602061349e87828801613322565b93505060406134af878288016133a0565b925050606085013567ffffffffffffffff8111156134cc57600080fd5b6134d887828801613376565b91505092959194509250565b600080604083850312156134f757600080fd5b600061350585828601613322565b925050602061351685828601613337565b9150509250929050565b6000806040838503121561353357600080fd5b600061354185828601613322565b9250506020613552858286016133a0565b9150509250929050565b60006020828403121561356e57600080fd5b600061357c8482850161334c565b91505092915050565b60006020828403121561359757600080fd5b60006135a584828501613361565b91505092915050565b6000602082840312156135c057600080fd5b60006135ce848285016133a0565b91505092915050565b6135e0816144df565b82525050565b6135ef816144f1565b82525050565b600061360082614387565b61360a818561439d565b935061361a818560208601614562565b61362381614707565b840191505092915050565b600061363982614392565b61364381856143ae565b9350613653818560208601614562565b61365c81614707565b840191505092915050565b600061367282614392565b61367c81856143bf565b935061368c818560208601614562565b80840191505092915050565b60006136a5602b836143ae565b91507f455243373231456e756d657261626c653a206f776e657220696e646578206f7560008301527f74206f6620626f756e64730000000000000000000000000000000000000000006020830152604082019050919050565b600061370b6032836143ae565b91507f4552433732313a207472616e7366657220746f206e6f6e20455243373231526560008301527f63656976657220696d706c656d656e74657200000000000000000000000000006020830152604082019050919050565b60006137716026836143ae565b91507f4f776e61626c653a206e6577206f776e657220697320746865207a65726f206160008301527f64647265737300000000000000000000000000000000000000000000000000006020830152604082019050919050565b60006137d7601c836143ae565b91507f4552433732313a20746f6b656e20616c7265616479206d696e746564000000006000830152602082019050919050565b60006138176024836143ae565b91507f4552433732313a207472616e7366657220746f20746865207a65726f2061646460008301527f72657373000000000000000000000000000000000000000000000000000000006020830152604082019050919050565b600061387d6019836143ae565b91507f4552433732313a20617070726f766520746f2063616c6c6572000000000000006000830152602082019050919050565b60006138bd602c836143ae565b91507f4552433732313a206f70657261746f7220717565727920666f72206e6f6e657860008301527f697374656e7420746f6b656e00000000000000000000000000000000000000006020830152604082019050919050565b60006139236014836143bf565b91507f7b226e616d65223a202248756e67204d616e20230000000000000000000000006000830152601482019050919050565b60006139636038836143ae565b91507f4552433732313a20617070726f76652063616c6c6572206973206e6f74206f7760008301527f6e6572206e6f7220617070726f76656420666f7220616c6c00000000000000006020830152604082019050919050565b60006139c9602a836143ae565b91507f4552433732313a2062616c616e636520717565727920666f7220746865207a6560008301527f726f2061646472657373000000000000000000000000000000000000000000006020830152604082019050919050565b6000613a2f6029836143ae565b91507f4552433732313a206f776e657220717565727920666f72206e6f6e657869737460008301527f656e7420746f6b656e00000000000000000000000000000000000000000000006020830152604082019050919050565b6000613a956002836143bf565b91507f227d0000000000000000000000000000000000000000000000000000000000006000830152600282019050919050565b6000613ad56020836143ae565b91507f4552433732313a206d696e7420746f20746865207a65726f20616464726573736000830152602082019050919050565b6000613b15602c836143ae565b91507f4552433732313a20617070726f76656420717565727920666f72206e6f6e657860008301527f697374656e7420746f6b656e00000000000000000000000000000000000000006020830152604082019050919050565b6000613b7b6020836143ae565b91507f4f776e61626c653a2063616c6c6572206973206e6f7420746865206f776e65726000830152602082019050919050565b6000613bbb6029836143ae565b91507f4552433732313a207472616e73666572206f6620746f6b656e2074686174206960008301527f73206e6f74206f776e00000000000000000000000000000000000000000000006020830152604082019050919050565b6000613c216021836143ae565b91507f4552433732313a20617070726f76616c20746f2063757272656e74206f776e6560008301527f72000000000000000000000000000000000000000000000000000000000000006020830152604082019050919050565b6000613c87601d836143bf565b91507f646174613a6170706c69636174696f6e2f6a736f6e3b6261736536342c0000006000830152601d82019050919050565b6000613cc76031836143ae565b91507f4552433732313a207472616e736665722063616c6c6572206973206e6f74206f60008301527f776e6572206e6f7220617070726f7665640000000000000000000000000000006020830152604082019050919050565b6000613d2d602c836143ae565b91507f455243373231456e756d657261626c653a20676c6f62616c20696e646578206f60008301527f7574206f6620626f756e647300000000000000000000000000000000000000006020830152604082019050919050565b6000613d936007836143bf565b91507f48756e674d616e000000000000000000000000000000000000000000000000006000830152600782019050919050565b6000613dd3601f836143ae565b91507f5265656e7472616e637947756172643a207265656e7472616e742063616c6c006000830152602082019050919050565b6000613e13603a836143bf565b91507f222c20226465736372697074696f6e223a2022222c2022696d616765223a202260008301527f646174613a696d6167652f7376672b786d6c3b6261736536342c0000000000006020830152603a82019050919050565b613e7581614549565b82525050565b613e8c613e8782614549565b614610565b82525050565b6000613e9e8284613667565b915081905092915050565b6000613eb58286613667565b9150613ec18285613667565b9150613ecd8284613667565b9150819050949350505050565b6000613ee6828f613667565b9150613ef2828e613667565b9150613efe828d613667565b9150613f0a828c613667565b9150613f16828b613667565b9150613f22828a613667565b9150613f2e8289613667565b9150613f3a8288613667565b9150613f468287613667565b9150613f528286613667565b9150613f5e8285613667565b9150613f6a8284613667565b91508190509d9c50505050505050505050505050565b6000613f8b82613916565b9150613f978285613667565b9150613fa282613e06565b9150613fae8284613667565b9150613fb982613a88565b91508190509392505050565b6000613fd082613c7a565b9150613fdc8284613667565b915081905092915050565b6000613ff282613d86565b9150613ffe8286613667565b915061400a8285613667565b91506140168284613e7b565b602082019150819050949350505050565b600060208201905061403c60008301846135d7565b92915050565b600060808201905061405760008301876135d7565b61406460208301866135d7565b6140716040830185613e6c565b818103606083015261408381846135f5565b905095945050505050565b60006020820190506140a360008301846135e6565b92915050565b600060208201905081810360008301526140c3818461362e565b905092915050565b600060208201905081810360008301526140e481613698565b9050919050565b60006020820190508181036000830152614104816136fe565b9050919050565b6000602082019050818103600083015261412481613764565b9050919050565b60006020820190508181036000830152614144816137ca565b9050919050565b600060208201905081810360008301526141648161380a565b9050919050565b6000602082019050818103600083015261418481613870565b9050919050565b600060208201905081810360008301526141a4816138b0565b9050919050565b600060208201905081810360008301526141c481613956565b9050919050565b600060208201905081810360008301526141e4816139bc565b9050919050565b6000602082019050818103600083015261420481613a22565b9050919050565b6000602082019050818103600083015261422481613ac8565b9050919050565b6000602082019050818103600083015261424481613b08565b9050919050565b6000602082019050818103600083015261426481613b6e565b9050919050565b6000602082019050818103600083015261428481613bae565b9050919050565b600060208201905081810360008301526142a481613c14565b9050919050565b600060208201905081810360008301526142c481613cba565b9050919050565b600060208201905081810360008301526142e481613d20565b9050919050565b6000602082019050818103600083015261430481613dc6565b9050919050565b60006020820190506143206000830184613e6c565b92915050565b6000604051905081810181811067ffffffffffffffff8211171561434d5761434c6146d8565b5b8060405250919050565b600067ffffffffffffffff821115614372576143716146d8565b5b601f19601f8301169050602081019050919050565b600081519050919050565b600081519050919050565b600082825260208201905092915050565b600082825260208201905092915050565b600081905092915050565b60006143d582614549565b91506143e083614549565b9250827fffffffffffffffffffffffffffffffffffffffffffffffffffffffffffffffff038211156144155761441461464b565b5b828201905092915050565b600061442b82614549565b915061443683614549565b9250826144465761444561467a565b5b828204905092915050565b600061445c82614549565b915061446783614549565b9250817fffffffffffffffffffffffffffffffffffffffffffffffffffffffffffffffff04831182151516156144a05761449f61464b565b5b828202905092915050565b60006144b682614549565b91506144c183614549565b9250828210156144d4576144d361464b565b5b828203905092915050565b60006144ea82614529565b9050919050565b60008115159050919050565b60007fffffffff0000000000000000000000000000000000000000000000000000000082169050919050565b600073ffffffffffffffffffffffffffffffffffffffff82169050919050565b6000819050919050565b82818337600083830152505050565b60005b83811015614580578082015181840152602081019050614565565b8381111561458f576000848401525b50505050565b600060028204905060018216806145ad57607f821691505b602082108114156145c1576145c06146a9565b5b50919050565b60006145d282614549565b91507fffffffffffffffffffffffffffffffffffffffffffffffffffffffffffffffff8214156146055761460461464b565b5b600182019050919050565b6000819050919050565b600061462582614549565b915061463083614549565b9250826146405761463f61467a565b5b828206905092915050565b7f4e487b7100000000000000000000000000000000000000000000000000000000600052601160045260246000fd5b7f4e487b7100000000000000000000000000000000000000000000000000000000600052601260045260246000fd5b7f4e487b7100000000000000000000000000000000000000000000000000000000600052602260045260246000fd5b7f4e487b7100000000000000000000000000000000000000000000000000000000600052604160045260246000fd5b6000601f19601f8301169050919050565b614721816144df565b811461472c57600080fd5b50565b614738816144f1565b811461474357600080fd5b50565b61474f816144fd565b811461475a57600080fd5b50565b61476681614549565b811461477157600080fd5b5056fe3c6c696e652078313d223530222079313d223530222078323d223530222079323d2233353022207374726f6b653d22626c61636b22207374726f6b652d77696474683d223322202f3e3c636972636c652063783d22313530222063793d223132352220723d22323522207374726f6b653d22626c61636b22207374726f6b652d77696474683d2233222066696c6c3d22776869746522202f3e3c7376672076657273696f6e3d22312e302220786d6c6e733d22687474703a2f2f7777772e77332e6f72672f323030302f737667222077696474683d22353030707822206865696768743d223530307078222076696577426f783d222d313135202d35302035303020353030223e202020202020202020202020202020202020202020203c6c696e652078313d2230222079313d2230222078323d2230222079323d2234313522207374726f6b653d22626c61636b22207374726f6b652d77696474683d223222202f3e202020202020202020202020202020202020202020203c6c696e652078313d2230222079313d2230222078323d22323730222079323d223022207374726f6b653d22626c61636b22207374726f6b652d77696474683d223222202f3e202020202020202020202020202020202020202020203c6c696e652078313d22323730222079313d2230222078323d22323730222079323d2234313522207374726f6b653d22626c61636b22207374726f6b652d77696474683d223222202f3e202020202020202020202020202020202020202020203c6c696e652078313d2230222079313d22343135222078323d22323730222079323d2234313522207374726f6b653d22626c61636b22207374726f6b652d77696474683d223222202f3e3c6c696e652078313d22313030222079313d223530222078323d223530222079323d2231303022207374726f6b653d22626c61636b22207374726f6b652d77696474683d223322202f3e3c6c696e652078313d223835222079313d22333530222078323d223530222079323d2232363522207374726f6b653d22626c61636b22207374726f6b652d77696474683d223322202f3e3c6c696e652078313d223135222079313d22333530222078323d223530222079323d2232363522207374726f6b653d22626c61636b22207374726f6b652d77696474683d223322202f3e3c706174682069643d22706174683022207669736962696c6974793d2276697369626c6522207374726f6b653d222330303030303022207374726f6b652d77696474683d223322207374726f6b652d6f7061636974793d223122207374726f6b652d6c696e656361703d22726f756e6422207374726f6b652d6c696e656a6f696e3d22726f756e6422207374726f6b652d6461736861727261793d226e6f6e6522206d61726b65722d73746172743d226e6f6e6522206d61726b65722d656e643d226e6f6e65222066696c6c3d226e6f6e65222066696c6c2d72756c653d226576656e6f6464222066696c6c2d6f7061636974793d22312220646174612d6e616d653d2263757276652220646174612d7469746c653d22637572766522206465673d22302220646174612d73773d22312220646174612d677261643d22302220646174612d67726f75703d22302220646174612d656469743d2231222066696c7465723d226e6f6e652220643d224d31323020313930204331323020313638203133332e3520313530203135302031353020433136362e352031353020313830203136382031383020313930204331383020323132203136362e3520323330203135302032333020433133332e352032333020313230203231322031323020313930205a202220646174612d63656e746572783d223135302220646174612d63656e746572793d22313930222f3e3c706174682069643d22706174683622207669736962696c6974793d2276697369626c6522207374726f6b653d222330303030303022207374726f6b652d77696474683d223322207374726f6b652d6f7061636974793d223122207374726f6b652d6c696e656361703d22726f756e6422207374726f6b652d6c696e656a6f696e3d22726f756e6422207374726f6b652d6461736861727261793d226e6f6e6522206d61726b65722d73746172743d226e6f6e6522206d61726b65722d656e643d226e6f6e65222066696c6c3d226e6f6e65222066696c6c2d72756c653d226576656e6f6464222066696c6c2d6f7061636974793d22312220646174612d6e616d653d2263757276652220646174612d7469746c653d22637572766522206465673d22302220646174612d73773d22312220646174612d677261643d22302220646174612d67726f75703d22302220646174612d656469743d2231222066696c7465723d226e6f6e652220643d224d3136362e313132203232342e353536204c3136322e313131203235392e353434204c3135392e313131203236372e343434202220646174612d63656e746572783d223136322e3631352220646174612d63656e746572793d22323436222f3e3c706174682069643d22706174683322207669736962696c6974793d2276697369626c6522207374726f6b653d222330303030303022207374726f6b652d77696474683d223322207374726f6b652d6f7061636974793d223122207374726f6b652d6c696e656361703d22726f756e6422207374726f6b652d6c696e656a6f696e3d22726f756e6422207374726f6b652d6461736861727261793d226e6f6e6522206d61726b65722d73746172743d226e6f6e6522206d61726b65722d656e643d226e6f6e65222066696c6c3d226e6f6e65222066696c6c2d72756c653d226576656e6f6464222066696c6c2d6f7061636974793d22312220646174612d6e616d653d2263757276652220646174612d7469746c653d22637572766522206465673d22302220646174612d73773d22312220646174612d677261643d22302220646174612d67726f75703d22302220646174612d656469743d2231222066696c7465723d226e6f6e652220643d224d313234203137302e313131204c3131342e393738203138342e303739204c3130362e353536203138392e363637202220646174612d63656e746572783d223131352e3237382220646174612d63656e746572793d223137392e383839222f3e3c6c696e652078313d2230222079313d223530222078323d22323730222079323d22353022207374726f6b653d22626c61636b22207374726f6b652d77696474683d223322202f3e4142434445464748494a4b4c4d4e4f505152535455565758595a6162636465666768696a6b6c6d6e6f707172737475767778797a303132333435363738392b2f3c706174682069643d22706174683522207669736962696c6974793d2276697369626c6522207374726f6b653d222330303030303022207374726f6b652d77696474683d223322207374726f6b652d6f7061636974793d223122207374726f6b652d6c696e656361703d22726f756e6422207374726f6b652d6c696e656a6f696e3d22726f756e6422207374726f6b652d6461736861727261793d226e6f6e6522206d61726b65722d73746172743d226e6f6e6522206d61726b65722d656e643d226e6f6e65222066696c6c3d226e6f6e65222066696c6c2d72756c653d226576656e6f6464222066696c6c2d6f7061636974793d22312220646174612d6e616d653d2263757276652220646174612d7469746c653d22637572766522206465673d22302220646174612d73773d22312220646174612d677261643d22302220646174612d67726f75703d22302220646174612d656469743d2231222066696c7465723d226e6f6e652220643d224d3132392e373738203232302e343435204c3133322e353535203234342e383337204c3133382e313131203235332e323232202220646174612d63656e746572783d223133332e3934352220646174612d63656e746572793d223233362e383333222f3e3c6c696e652078313d2230222079313d22333530222078323d22323730222079323d2233353022207374726f6b653d22626c61636b22207374726f6b652d77696474683d223322202f3e3c6c696e652078313d22313530222079313d223530222078323d22313530222079323d2231303022207374726f6b653d22626c61636b22207374726f6b652d77696474683d223322202f3e3c706174682069643d22706174683422207669736962696c6974793d2276697369626c6522207374726f6b653d222330303030303022207374726f6b652d77696474683d223322207374726f6b652d6f7061636974793d223122207374726f6b652d6c696e656361703d22726f756e6422207374726f6b652d6c696e656a6f696e3d22726f756e6422207374726f6b652d6461736861727261793d226e6f6e6522206d61726b65722d73746172743d226e6f6e6522206d61726b65722d656e643d226e6f6e65222066696c6c3d226e6f6e65222066696c6c2d72756c653d226576656e6f6464222066696c6c2d6f7061636974793d22312220646174612d6e616d653d2263757276652220646174612d7469746c653d22637572766522206465673d22302220646174612d73773d22312220646174612d677261643d22302220646174612d67726f75703d22302220646174612d656469743d2231222066696c7465723d226e6f6e652220643d224d3137362e35353620313731204c3138372e333839203138392e353836204c3139362e353535203139312e343435202220646174612d63656e746572783d223138362e3535362220646174612d63656e746572793d223138312e323232222f3ea2646970667358221220bf603404f7cbcbd011ad09f059879b0a3cd908aba35aeeae2e9aa9a0d1ccdce764736f6c63430008000033",
  "linkReferences": {},
  "deployedLinkReferences": {}
}